:020000040000fa
:080000000002040000000000f2
:020000040000fa
:1000080090020000900200009002000090020000a0
:100018009002000090020000900200009002000090
:100028009002000090020000900200009002000080
:100038009002000090020000900200009002000070
:020000040000fa
:020000040000fa
:100400000f8120000ebf22000e01880000000000b6
:100410000c000700206d20000100200011000700e3
:10042000000020000000e000020032000000020096
:100430000000000072060200000000000040da0028
:100440000000fe004440a900000020000000e00081
:100450000300320000002000a00188004440a800f2
:100460000000060091018800800078000000eb0089
:1004700015003700e280400032a0b4009101ba00bc
:10048000e280400032a0b4009102ba00e280400055
:1004900032a0b4000002eb00472bde00f507b200eb
:1004a000602ce10004003a000059eb008301e900f0
:1004b000fdff3e00040037006128e100010032002a
:1004c0000082eb00040007001101ba000200e00006
:1004d000e8ff3a00000006003159ba008301e90044
:1004e0000c0032002159ba008301e90008003200f3
:1004f0000400e00003003a00e280400032a0b400b3
:10050000f5ff370011d9ba008301e900faff3a007c
:100510008100e800e180400032a0b4000000060045
:100520000040da000000fe00000024000602ab00dc
:10053000feff3a000642ab00fcff3a000662ab0049
:10054000faff3a000622ab00f8ff3a000682ab0041
:10055000f6ff3a004110800080806000f3ff3a000f
:10056000000006000662a8000662ab00feff3a002b
:1005700008c2a90000108000000006000080fb00f7
:1005800010108800411080000108b20000c0eb008c
:100590000a003a00000024004110800080806000c2
:1005a000fdff3a00e0ff0700411080000000280036
:1005b0000080600001003200e0cfb30000000600c0
:1005c00006a2a8000682a800000006000622a800d5
:1005d000000006000602a800000006000642a8006f
:1005e00000000600839f68000100e00002003d005b
:1005f00060001000e08018000300e00002003d00f1
:1006000060011100e0811900050007004f00e000c3
:1006100002003b0060001000e080180000000600af
:100620006022b800060220000000d0008180d200c5
:100630000482d2008582d2000000a0000202520093
:1006400083825a00030031000202420083824a0082
:100650000000a1000603e900f3ff3a0000000600d5
:020000040000fa
:100660000000fa0010c0b300e40007000040eb00f7
:10067000210007000040eb00340007000040eb00c1
:10068000020007000080fa00000006000200fa00e5
:10069000004f7800b1c6b30080c6b3004601070022
:1006a00000e8b7001e407800e04f5000060032001e
:1006b000018020009140780000c4b30000c07000a9
:1006c00000e8b70005003700018020009140780065
:1006d000f0cbb30000c0600000e8b70000c8bf0066
:1006e00000417800b1c6b30080c6b300f600070031
:1006f0000080fa00000006000200fa00004f7800b7
:10070000b1c1b30080c6b3002b01070000e8b700f9
:1007100000c8bf008040780000ceb30080c06000f9
:100720001e4178000280fb004300dd00004078009d
:1007300000c0700000417800b1c1b30080c6b300b2
:10074000e10007000080fa00000006000200fa0045
:10075000004f7800c1c1b30080c6b3001601070086
:1007600000e8b70000c8bf008040780000ceb300aa
:1007700080c060001e4178000280fb004300dd0065
:100780000040780000c0700000417800c1c1b30093
:1007900080c6b300cc0007000080fa00000006000d
:1007a0000200fa00000f7800b1c3b30080c6b300a6
:1007b0000101070000e8b700c1c3b30080c6b30061
:1007c000fd00070001e8b700d1c3b30080c6b30045
:1007d000f900070002e8b700e1c3b30080c6b30028
:1007e000f500070003e8b700f1c3b30080c6b3000b
:1007f000f100070004e8b70001c4b30080c6b300ed
:10080000ed00070005e8b70031c4b30080c6b300af
:10081000e900070006e8b70041c4b30080c6b30092
:10082000e500070007e8b70051c4b30080c6b30075
:10083000e100070008e8b70061c4b30080c6b30058
:10084000dd00070009e8b70071c4b30080c6b3003b
:10085000d90007000ae8b70081c4b30080c6b3001e
:10086000d50007000be8b70000c8bf000080fb0000
:10087000c800dd0001c8bf000080fb008080700060
:100880001e0078000108780002c8bf000080fb004d
:10089000c800dd0003c8bf000080fb00808070003e
:1008a0001e0078001100980004c8bf000080fb0003
:1008b000c800dd0005c8bf000080fb00808070001c
:1008c0001e0078002100980008c8bf000080fb00cf
:1008d000c800dd0009c8bf000080fb0080807000f8
:1008e0001e007800310098000ac8bf000080fb009d
:1008f000c800dd000bc8bf000080fb0080807000d6
:100900001e007800410098000cc8bf000080fb006a
:10091000c800dd000dc8bf000080fb0080807000b3
:100920001e007800510098000080fa0000000600c8
:100930000200fa00000f780011c4b30080c6b300b3
:100940009d00070000e8b70021c4b30080c6b300d3
:100950009900070001e8b70000c8bf000080fb0055
:10096000c800dd0001c8bf000080fb00808070006f
:100970001e007800610098000080fa000000060068
:100980000200fa00004f7800b1c6b30080c6b30081
:100990008900070000e8b7001e407800e04f5000d3
:1009a00004003a0000c8bf000034a00000e8b7000f
:1009b00005003700018020009140780070cfb3001f
:1009c00000c0600000e8b70000c8bf000041780028
:1009d000b1c6b30080c6b3003b0007000080fa0038
:1009e000000006000000fa0051c7b30080c6b30043
:1009f000710007000080fa00000006000200fa0003
:100a0000004f7800b1c6b30080c6b3006a0007008b
:100a100000e8b70000c8bf008040780080cfb30076
:100a200080c060001e40780000c070000041780067
:100a3000b1c6b30080c6b300230007000080fa00ef
:100a4000000006000400fa00100798000000eb0008
:100a5000000f78000ec8bf00e14f500017003200b1
:100a600007e2a9001e0090000000400001002000e5
:100a70000001be0000a0250021262000d9fe0700ad
:100a8000000078000080e90020108800201080001d
:100a90000080e80000004000010020000001be00ce
:100aa00000a0250021262000cefe0700000f7800c0
:100ab00007e2a80010c0b3000ee8b7001e007800df
:100ac0000080fa00000006000400fa00004f7800e1
:100ad0001147980022479800befe07000000000062
:100ae0003010800061006000e00f5000fcff3a0011
:100af0008620a9001e407800a0fe0700000000002c
:100b00004010800061006000e00f5000fcff3a00e0
:100b1000000000003004800062006000e00f500020
:100b2000fcff32008620a9001e40900093fe0700c3
:100b3000000000004010800061006000e00f5000e5
:100b4000fcff3a00000000003004800062006000fa
:100b5000e00f5000fcff32008620a9002e409000dc
:100b600086fe070000000000401080006100600069
:100b7000e00f5000fcff3a0000000000300480004d
:100b800062006000e00f5000fcff32008620a900e8
:100b900092fe07000000000030108000640060003a
:100ba000e00f5000fcff3a005ffe070010c0b300ea
:100bb0000080fa00000006000400fa0020479800b8
:100bc000314798000040eb00004f780081fe07009d
:100bd000000000003010800061006000e00f500055
:100be000fcff3a002e40900064fe07000000000069
:100bf0004010800061006000e00f5000fcff3a00f0
:100c0000000000003004800062006000e00f50002f
:100c1000fcff32008620a9003e40900057fe0700ee
:100c2000000000004010800061006000e00f5000f4
:100c3000fcff3a0000000000300480006200600009
:100c4000e00f5000fcff32008620a9005ffe070085
:100c5000000000003010800062006000e00f5000d3
:100c6000fcff3a002e4090000040e80043fe0700e1
:100c7000000000004010800061006000e00f5000a4
:100c8000fcff3a00000000003004800062006000b9
:100c9000e00f5000fcff32008620a90031fe070063
:100ca000004f780046fe0700000000003010800072
:100cb00070006000e00f5000fcff3a0047fe0700a4
:100cc000000000003010800064006000e00f500061
:100cd000fcff3a0014fe07001e4078000080fa0076
:100ce000000006000000fa0060022000303a880090
:100cf000213a8000f0f32f0000806000203a880045
:100d0000213a800000fe2f0000806000203a880019
:100d10000000eb00403a880040a7a9001200200024
:100d200080072000a109200033742000804978004a
:100d30008149780082497800120020006004200078
:100d400071052000237420008049780081497800d3
:100d50008249780000000000113a8000000027005e
:100d60008080600000002100808f5000faff3a0070
:100d700000000000113a80000002200000806000a6
:100d8000e00f5000fbff320000f421002dff0700b0
:100d9000e00420002010880031fe070011ff07004a
:040da000feff37001b
:020000040000fa
:100da4000e0800000200000000000000000800001f
:0c0db4000e000000000000000000000025
:020000040000fa
:0200000401f009
:04000c00f8ff0000f9
:020000040000fa
:0200000401f009
:040010007dff000070
:020000040000fa
:0200000401f009
:040014007fff00006a
:020000040000fa
:0200000401f009
:04001c00deff000003
:00000001FF
