:020000040000fa
:080000000002040000000000f2
:020000040000fa
:1000080090020000900200009002000090020000a0
:100018009002000090020000900200009002000090
:100028009002000090020000900200009002000080
:100038009002000090020000900200009002000070
:020000040000fa
:020000040000fa
:100400008f8e20000e7f24000e0188000000000067
:100410000c000700e0ef20000100200011000700a1
:10042000000020000000e000020032000000020096
:1004300000000000bc0f0200000000000040da00d5
:100440000000fe004440a900201020000000e00051
:100450000300320000002000a00188004440a800f2
:100460000000060091018800800078000000eb0089
:1004700015003700e280400032a0b4009101ba00bc
:10048000e280400032a0b4009102ba00e280400055
:1004900032a0b4000002eb00472bde00f507b200eb
:1004a000602ce10004003a000059eb008301e900f0
:1004b000fdff3e00040037006128e100010032002a
:1004c0000082eb00040007001101ba000200e00006
:1004d000e8ff3a00000006003159ba008301e90044
:1004e0000c0032002159ba008301e90008003200f3
:1004f0000400e00003003a00e280400032a0b400b3
:10050000f5ff370011d9ba008301e900faff3a007c
:100510008100e800e180400032a0b4000000060045
:100520000040da000000fe00839f68000100e00048
:1005300002003d0060001000e08018000300e000b1
:1005400002003d0060011100e08119000500070074
:100550004f00e00002003b0060001000e080180047
:10056000000006006022b800060220000000d00053
:100570008180d2000482d2008582d2000000a000d7
:100580000202520083825a0003003100020242003c
:1005900083824a000000a1000603e900f3ff3a004d
:1005a000000006000000fa0068815700cfb89700ed
:1005b000e08a2000020007000080fa000000060028
:1005c0008f03b000889fbe008a9fbe008c9fbe0034
:1005d0008e1f7800c0b79f00e1af9f00b2af9f00b1
:1005e0000000eb00b0b79f00f2023700efa89700c1
:1005f0008100e800e1af9f0052c2b300824f50007b
:1006000006003a000047eb0003c3b3006541510008
:10061000b1c2b3006fa8970011003700cfb19700a7
:10062000330190000204b20004003200130178008c
:10063000004978008209e800050037000000fb004f
:10064000cfb09700e7020700e10f4000d902320067
:100650003fb297000402e800b4b79f00d50237000c
:1006600010427800d5c2b300854f52000c00320012
:100670008002e800d6c2b300864f520005003c005d
:10068000824f520009003200814f52000e003a00a2
:1006900008003700834f52000b003a000700370074
:1006a0000e34a0000000e800edff37000e04a000ab
:1006b000030037000e14a000010037000e24a00034
:1006c00005007800e6ff3700e0af9f00620067009a
:1006d000010032000e04a100680067000100320032
:1006e0000e24a1000400fb000003b100e90f50003c
:1006f0000d003e00000020006fa997006a00b900bd
:100700000003b1009200fb0001004000d200fb009a
:100710000103b100e98f5000f8ff3600c0af9f0021
:10072000e2af9f000c0037000005eb00caaf9f004e
:10073000a3c2b300834f520007003a00bfad970039
:100740004b067800bbaf9f00ccaf9f006fa897000f
:100750000000e800e0af9f008000eb00d1af9f00f9
:10076000e3c2b3006fa9970092cf11001c003a00ba
:10077000e4c151000201e800e2af9f00124278009c
:10078000834f52000d003a00bfaa9700450378003e
:10079000b5af9f00d6af9f00820378008703e800c3
:1007a000e7af9f000e0037006a00b9000003b100f8
:1007b000020040008301e800020037005fa89700b4
:1007c000efa997001301fb0001fd2f00828040007c
:1007d000e98f5000f4ff3600d0af9f00e3af9f00d9
:1007e00032c6b300c1c6b300efaa97003542780005
:1007f000c47f9f0038c7b300884f52001a003200f0
:1008000008003c00824f520097003200814f520096
:100810000c003200e5af9f00e04f52006a02320048
:10082000b0003700e5af9f0053c7b300834f5200bd
:10083000b2003200e3c14100834f5200a9003a00e8
:1008400006003700f00167000040eb0001003a00ad
:1008500000c1b30000477700e4ff37000e41780085
:100860000274a000a7003700e5af9f003fad9700de
:100870004a027800baaf9f00f4af9f00e00f520029
:1008800002003a008c8c2000fcaf9f000000eb00bf
:1008900080b79f007fa897008fb097001fb1970087
:1008a000afb19700010037008500e80081027800b1
:1008b00061427800e04f5200fbff3a00f0af9f002a
:1008c00081b79f0092b79f00a3b79f00dfaa970050
:1008d000e08f5200050032000fb39700868f520060
:1008e000020031008503780087b79f000fb29700a0
:1008f0000006eb004fac9700840f54000100360057
:10090000040654008e047800688764002f003a00c3
:100910000c00780008c2b300cfb697001000370073
:100920003d0090000004b200040032001d00780079
:1009300008487800800ee800050037008d00780038
:100940000002200027020700e10f400003003200f0
:100950003fb597000a05e800bab79f000c00780081
:100960000c06e900e00f5000edff3a0017003700d9
:100970003d0090000004b200090032009d017800a3
:10098000080178003240780080497800830ee80042
:1009900002047800e04f500008003a0010003700d1
:1009a000080178003200fb00020478008d00780016
:1009b0000c020700e10f4000090032003fb0970031
:1009c0000000e800b0b79f00050037007fac97003b
:1009d0008fb497001fb59700afb59700cfb69700bb
:1009e000090078008004e900e00f5000e0ff3a00c1
:1009f000f8af9f0089b79f009ab79f00abb79f00e1
:100a0000e00f5700eb013200110037003800900072
:100a10000004b20004003200180078000d4878008d
:100a2000000ce80005003700880078000002200074
:100a3000ec010700e10f400003003200bfb2970055
:100a40008502e800b5b79f000e0678000200370067
:100a50000dc2b3004fb497000c07e900e00f560039
:100a6000eaff3a00d3013700e5af9f003fab9700a4
:100a700046047800b6af9f00cfc4de0009057800b9
:100a80008a0578000802be000a03be004822de0084
:100a9000482edd0004027600c47f9f0070066700c8
:100aa00009003200e04f520007003200e14f4200df
:100ab00005003200d47f9f00e87f9f0021002000c6
:100ac00081b79f0003003700d87f9f0012002000ed
:100ad00082b79f00d3fb2f0083814700f3af9f00b5
:100ae0007aff3700c4fb2f0004824700f4af9f0059
:100af0001500200085b79f0074ff370002ccb300bb
:100b0000024177000281fb00a2af9f0070036100e9
:100b100086a79f00120032003fad97004a04be0036
:100b2000baaf9f00d8a79f00e9a79f008005eb0000
:100b3000fba79f000006eb008caf9f005fa0970013
:100b4000efa097007fa197008fa99700f0af9f00bb
:100b500081b79f0092b79f00a3b79f000b0037009b
:100b6000bfa8970041027800b1af9f00040478004d
:100b7000090020000a0020000b002000f8af9f00b1
:100b800089b79f009ab79f00abb79f00dfac970073
:100b9000e08f54000d003a001a002000daaf9f00e9
:100ba0007fa897008fb097001fb19700afb1970053
:100bb000e00f5000e08f5800e00f5900e08f59001f
:100bc000020032008000eb00d1af9f002fa99700f8
:100bd000020cb20092af9f0004082000840f510065
:100be0001b003200040c2000840f510033003a0037
:100bf00012c0b300c27f9f00258020001000370084
:100c00000400fb004300dd00008042005001be00f4
:100c10004000be007fac97008fb497001fb59700cf
:100c2000afb597000040e10001c8e10002d0e1004b
:100c300003d8e100210039000442e800c47f9f008e
:100c40004f7a9700f44f5200edff3a001b00370037
:100c500012c0b300c27f9f000401200005002000e5
:100c60006033b800120037007fac97008fb4970054
:100c70001fb59700afb597000440e10005c8e1003b
:100c800006d0e10007d8e1000c003900490020003f
:100c90000402d0008582d2000683d2008783d2006e
:100ca0008904e900faff3a000040e800c07f9f0095
:100cb0004f789700f04f5000ebff3a004f7d9700c0
:100cc0000a02fb00dfad97008b0f520002003d00cf
:100cd000cb7f9f00040037005fae9700840f560063
:100ce00001003d00d4af9f004fa89700e00f5000d7
:100cf00005003200afa89700638260000200320056
:100d00000000e900c0af9f004f7997000202fb008e
:100d10000007eb00cfa99700848f51000100340039
:100d200004875100afaa9700648262004a00320033
:100d30006282620005037800e1026300e00f520066
:100d40001b003200cfb39700370290000404b200ba
:100d50000900320017037800b4c2b300e08f5200dc
:100d60000100320004c2e800044b78004fb4970041
:100d7000060ce8000a003700d4022000e08f520081
:100d800001003a000482e900cfb097000400780027
:100d90001401070000027800e10f42001800320041
:100da000bfb497008904e800b9b79f00140037006a
:100db000e08f5200120032004fb597003a029000c7
:100dc0000404b200050032001a02780002c2b30027
:100dd000024a7800040de80006003700cfb0970003
:100de00000022000ff00070000027800e10f42002f
:100df00003003200bfb597008b05e800bbb79f002a
:100e0000e00f5700c500320008c3b300bfb697001b
:100e10004fb697003c0090000004b200040032007e
:100e20001c00780008487800000ee8000500370034
:100e30008c00780000032000ea000700e10f40006a
:100e4000010032008d06e8000e07e900f1ff3a00cc
:100e5000bdb79f00b1003700e00f57001600320009
:100e60002fae97006802660013003a0008c2b30074
:100e7000bfb697004fb697003c0090000004b20048
:100e8000040032001c00780008487800000ee800da
:100e9000050037008c00780000022000d100070018
:100ea000e10f4000010032008d06e8000e07e90066
:100eb000f1ff3a00bdb79f002fa8970062026000c3
:100ec000e1026000e00f52001b003200cfb097003b
:100ed000310290000404b2000900320011037800ce
:100ee000b4c2b300e08f52000100320004c2e80037
:100ef000044b78004fb197000609e8000a0037005c
:100f0000d4022000e08f520001003a000482e90080
:100f1000cfb0970004007800b2000700000278000c
:100f2000e10f42007d003200bfb197008301e8006d
:100f3000b3b79f0079003700e08f5200770032008e
:100f4000cfb29700350290000404b20005003200d1
:100f50001502780002c2b300024a7800840ae80051
:100f600006003700cfb09700000220009d00070068
:100f700000027800e10f4200680032003fb39700a2
:100f80000603e800b6b79f00640037000e07e900cb
:100f9000000820001fac9700800f54003200320080
:100fa000000c2000800f54003e003a004370dd002a
:100fb0008fa49700e08f54001a0032000406be0090
:100fc0002a802000000045003004be002005be003d
:100fd0000801be000400be0062fd0700c07f9f0044
:100fe0000000fb00cf80de000801be0033010700d7
:100ff0000001560081815e0092a79f00a3a79f0079
:101000008001eb00b3a79f000002eb00c4a79f0084
:101010001fa29700afa297003fa39700cfa397000e
:101020000d0037002880200068017800811f7800bb
:10103000110009000282d800cf007800a200200031
:10104000811f7800110009000280d800010078009b
:10105000cf007800c07f9f00cf7c97000943b0008d
:10106000c97f9f000f0037004270dd000605be00fb
:101070000404be00000678000c06e90005003300f9
:101080008b05d1000a85d3008984d3000884d3005e
:10109000f9ff37006f006400f18c20006140780098
:1010a000c07f9f004fb19700320090000004b20053
:1010b0000800320082017800130178004f78970011
:1010c000004978008209e800e04f50000f003a0024
:1010d000190037004f7c97000800fb00cfb0970045
:1010e000d4b79f00e5b79f00f6b79f0087bf9f006a
:1010f0003c0007005fb29700efb297007fb3970004
:101100008fbb9700e10f40000b003200bfb4970087
:101110008904e800b9b79f00070037000e05780082
:10112000caaf9f005faf97007faa97008fb297006a
:101130001fb39700afb39700e00f570093ff3a003b
:101140004faf9700f4af9f0085b79f0096b79f0001
:10115000a7b79f00afa89700688160001500320014
:10116000e00f57001300340008c2b300bfb6970069
:101170004fb697003c0090000004b200040032001b
:101180001c00780008487800000ee80005003700d1
:101190008c0078000002200012000700e10f4000e0
:1011a000010032008d06e8000e07e900f1ff3a0069
:1011b000bdb79f006fa9970012407800c07f9f00c5
:1011c000e04f500009fd3a003fb097004f0778000c
:1011d0004f06be004f05be004f04be008f03b10096
:1011e00000000600889fbe0001047800b80090004f
:1011f000628160008084eb003c0032008101780055
:101200000320b2001801900002003a00e00f5100e4
:1012100036003a000190a000310498008004780064
:10122000f90fb200e00f510002003a0028009000d0
:10123000000c7800ea8f540006003a0001007800a4
:101240000008b20003003a0088007800d0002000b7
:10125000e4ff070018009000d8009000810f5000b4
:101260000b0032000000e80010049800180078001d
:1012700009487800000ce80010c0b300018e20007f
:1012800080487800ea8f540018003a0005003700c3
:101290008800780009407800170007008004780073
:1012a00012003700380090000010b2000f0032002a
:1012b00018019000a800900048009000500007001e
:1012c00098009000810f5000040032003800900018
:1012d0000003b300300498008084eb000000eb00b2
:1012e0001004980028009000000c78000900780095
:1012f0004f04be00000006000200fa00889fbe00f6
:10130000a0ff9f0001047800380090008000780062
:101310000104b20033003a00e200600005003a0028
:101320000003b30030049800110498000080eb0023
:101330002e003700d8049000e08f540006003a00d9
:1013400012002000e6805700480090002c000700a3
:101350001904980023003700a8009000e08f500087
:1013600008003a00318e200021049800010c78001a
:101370002100200051049800110498000030a000c2
:101380003004980018019000a800900048009000d8
:101390001b000700280090008080eb0011049800db
:1013a000aff8970001487800000ce8002ff897008c
:1013b000ea4f50000b003a00380090000010b200d5
:1013c0000800320018019000a8009000480090002a
:1013d0000b0007000000eb0010049800a80090002c
:1013e000010c7800aff897000100fb004f04be002d
:1013f0000080fa000000060000c0da0000000600cd
:101400000a00fa00e20f500021003e003047800041
:10141000e10f500006003200852320004423200005
:101420002323200000232000e08f520004003a0014
:1014300085222000442220002322200000222000b8
:10144000060028009003630002003a00870a780033
:1014500010087300004020001300600001003a00f3
:1014600013a0a00002007800060037009302780065
:101470000510b200fdff3200b102fb00050a780042
:101480000000e900e00f5000f8ff3a0008003700c4
:1014900033002000b3bf9f00c0bf9f00d1bf9f009b
:1014a000e2bf9f006a805700d3ff07006fb9970023
:1014b000020078000080fa0000000600020ab9006d
:1014c000001bb9000200b800810042008100430007
:0414d0000000060012
:020000040000fa
:1014d4004465000076690000636500002052000046
:1014e40065730000706f00006e64000065640000a6
:1014f4002077000069740000682000004e4100005d
:10150400434b00000044000065760000696300005e
:101514006520000052650000737000006f6e0000cb
:1015240064650000642000007769000074680000ae
:10153400204e0000414300004b2000007570000065
:101544006f6e00002061000064640000726500009a
:1015540073730000696e00006700000044650000ba
:101564007669000063650000205200006573000086
:10157400706f00006e640000656400002077000056
:1015840069740000682000004e410000434b0000d5
:1015940020750000706f00006e2000006164000080
:1015a400647200006573000073200000746f000013
:1015b40020770000616b00006500000044650000b6
:1015c4007669000063650000205200006573000026
:1015d400706f00006e6400006564000020770000f6
:1015e40069740000682000004e410000434b000075
:1015f40020750000706f00006e200000636800001a
:10160400616e0000676900006e67000020740000ce
:101614006f20000061770000616b0000652000000e
:101624006d6f0000646500000044000065760000f2
:1016340069630000652000005265000073700000bb
:101644006f6e00006465000064200000776900008c
:1016540074680000204e0000414300004b3100003c
:101664000044000065760000696300006520000006
:1016740052650000737000006f6e00006465000026
:10168400642000007769000074680000204e0000a8
:10169400414300004b320000004400006576000026
:1016a400696300006520000052650000737000004b
:1016b4006f6e00006465000064200000776900001c
:1016c40074680000204e0000414300004b330000ca
:0416d4000000000012
:020000040000fa
:1016d8000400fa00100798000000eb00000f7800e3
:1016e80000c8bf00e14f50001700320007e2a90010
:1016f8001e00900000004000010020000001be0014
:1017080000a025002126200085fb070000007800a6
:101718000080e90020108800201080000080e80088
:1017280000004000010020000001be0000a02500cc
:10173800212620007afb0700000f780007e2a800a6
:1017480010c0b30000e8b7001e0078000080fa005f
:10175800000006000400fa0020479800314798006e
:101768000000eb00000f78000602a800000000004f
:101778003010800061006000e00f5000fcff3a006c
:101788002e4090000000fb00000040001010880070
:10179800000000004110800000002400008060006c
:1017a800e00f5000fbff3a004110800000002800c5
:1017b80000806000e00f500005003200a0a628005d
:1017c800801f780075fb07008f87e900ffff37004f
:1017d8003e4090000000fb00101088000000000050
:1017e800411080000000240000806000e00f5000dd
:1017f800fbff3a00411080000000280000806000d4
:10180800e00f500005003200a0a62800801f7800d5
:1018180062fb07008f87e900ffff37000622a80058
:10182800000000003010800062006000e00f5000ef
:10183800fcff3a002e4090000000fb000000400032
:101848000000e8001010880000000000411080002f
:101858000000240000806000e00f5000fbff3a0009
:10186800411080000000280000806000e00f500058
:1018780005003200a0a62800801f780047fb07005b
:101888008f87e900ffff37000662a800000000000c
:101898004010800062006000e00f5000fcff320042
:1018a800001080004800dd00000f78000682a800c4
:1018b800000000003010800070006000e00f500051
:1018c800fcff3a000662a8000000000040108000fb
:1018d80062006000e00f5000fcff32009e007800bc
:1018e8000010800000807000000f780006a2a80099
:1018f8000682a80000000000301080007000600020
:10190800e00f5000fcff3a0006a2a9000642a8001a
:10191800000000003010800064006000e00f5000fc
:10192800fcff3a001e0078000080fa000000060064
:101938000a00fa004047980051479800320798007b
:10194800034f98000000eb00100798000602a8005b
:10195800000000003010800061006000e00f5000bf
:10196800fcff3a004e4090000000fb0000004000e1
:1019780010108800000000004110800000002400c2
:1019880000806000e00f5000fbff3a00411080002b
:101998000000280000806000e00f500005003200c1
:1019a800a0a62800801f7800fcfa07008f87e900ae
:1019b800ffff37005e4090000000fb001010880019
:1019c800000000004110800000002400008060003a
:1019d800e00f5000fbff3a00411080000000280093
:1019e80000806000e00f500005003200a0a628002b
:1019f800801f7800e9fa07008f87e900ffff3700aa
:101a08000622a8000000000030108000620060007c
:101a1800e00f5000fcff3a004e4090000000fb0031
:101a2800000040000000e8001010880000000000de
:101a3800411080000000240000806000e00f50008a
:101a4800fbff3a0041108000000028000080600081
:101a5800e00f500005003200a0a62800801f780083
:101a6800cefa07008f87e900ffff37000662a8005b
:101a7800000000004010800062006000e00f50008d
:101a8800fcff32000010800000407800be0090008b
:101a9800804878000040eb00004f780010c0b30089
:101aa800004f7800130037000682a80000000000ed
:101ab8003010800070006000e00f5000fcff3a001a
:101ac8000662a8000000000040108000620060006c
:101ad800e00f5000fcff32001e00fb00be0090002b
:101ae8008080400000108000004078008048780026
:101af8001e4fe8000e4890009e40780080cf5000ae
:101b0800e9ff350006a2a8000682a8000000000030
:101b18003010800070006000e00f5000fcff3a00b9
:101b280006a2a9000642a8000000000030108000ac
:101b380064006000e00f5000fcff3a000080fa00eb
:101b4800000006000400fa00004f780011479800d2
:101b5800224798000602a80000000000301080000c
:101b680061006000e00f5000fcff3a001e00fb001f
:101b780000004000101088000000000041108000a4
:101b88000000240000806000e00f5000fbff3a00d6
:101b9800411080000000280000806000e00f500025
:101ba8000500320050a82800801f78007bfa070043
:101bb8008f87e900ffff37001e4090000000fb0000
:101bc8001010880000000000411080000000240070
:101bd80000806000e00f5000fbff3a0041108000d9
:101be8000000280000806000e00f5000050032006f
:101bf80000ab2800801f780068fa07008f87e9008b
:101c0800ffff37002e4090000000fb0010108800f6
:101c180000000000411080000000240000806000e7
:101c2800e00f5000fbff3a00411080000000280040
:101c380000806000e00f50000500320000ae280070
:101c4800801f780055fa07008f87e900ffff3700eb
:101c58000642a80000000000301080006400600008
:101c6800e00f5000fcff3a0010c0b3000080fa00fb
:101c7800000006000400fa00204798003147980049
:101c88000040eb00004f78000040eb001047980040
:101c98000602a8000000000030108000610060000b
:101ca800e00f5000fcff3a002e4090000000fb00bf
:101cb8000000400010108800000000004110800063
:101cc8000000240000806000e00f5000fbff3a0095
:101cd800411080000000280000806000e00f5000e4
:101ce8000500320070b12800801f78002bfa070029
:101cf8008f87e900ffff37003e4090000000fb009f
:101d0800101088000000000041108000000024002e
:101d180000806000e00f5000fbff3a004110800097
:101d28000000280000806000e00f5000050032002d
:101d380030b32800801f780018fa07008f87e90061
:101d4800ffff37000622a8000000000030108000c6
:101d580062006000e00f5000fcff3a002e40900047
:101d68000000fb00000040000000e80010108800a0
:101d78000000000041108000000024000080600086
:101d8800e00f5000fbff3a004110800000002800df
:101d980000806000e00f500005003200f0b4280019
:101da800801f7800fdf907008f87e900ffff3700e3
:101db8000662a80000000000401080006200600079
:101dc800e00f5000fcff3200001080001047980020
:101dd8000642a80000000000301080006400600087
:101de800e00f5000fcff3a001e4090000080fa000f
:041df80000000600e1
:020000040000fa
:101dfc00000800000200000000000000e0080000e5
:101e0c000600000000000000a208000026000000f0
:101e1c0002000000e108000000e1080009000000d9
:101e2c0000020000e308000000e308000e020100bd
:101e3c00000000000000000000000000060202008c
:101e4c0000000000a2080000c808000018000000f4
:101e5c0002000000286e75006c6c29000030310007
:101e6c003233340035363700383961006263640030
:101e7c006566000002080000a000000002000000df
:101e8c00010000000000000000000a00000000003b
:101e9c0000000000006400000000000000000000d2
:101eac00e803000000000000000010002700000004
:101ebc000000000000a086000100000000000000ef
:101ecc0040420f00000000000000800096980000c7
:101edc00000000000000e100f5050000000000001b
:101eec0000ca9a003b00000000000000e40b540004
:101efc00020000000000e800764817000000000017
:101f0c000010a500d4e8000000000000a0724e00f4
:101f1c0018090000000040007a10f3005a0000007d
:101f2c000080c600a47e8d000300000000c16f007d
:101f3c00f2862300000000008a5d780045630100f2
:101f4c0000006400a7b3b600e00d000000e88900b3
:101f5c000423c7008a000000e6080000020000000d
:0c1f6c0002000000010000000000000066
:020000040000fa
:101f78000000fa0060022000303a8800213a800010
:101f8800f0f32f0000806000203a8800213a80009a
:101f980000fe2f0000806000203a88000000eb005f
:101fa800403a880040a7a9001200200080072000be
:101fb800a109200033742000804978008149780005
:101fc800824978001200200060042000710520007a
:101fd800237420008049780081497800824978007c
:101fe80000000000113a8000000027008080600097
:101ff80000002100808f5000faff3a000000000026
:10200800113a80000002200000806000e00f5000bc
:10201800fbff3200c082a900c482a80007e2a90021
:10202800b00a20002010880007e2a8000602a800d5
:10203800000000003010800061006000e00f5000d8
:10204800fcff3a00201c200010108800000000004f
:10205800411080000000240000806000e00f500064
:10206800fbff3a00b00020001010880000000000bc
:10207800411080000000240000806000e00f500044
:10208800fbff3a003000200010108800000000001c
:10209800411080000000240000806000e00f500024
:1020a800fbff3a000642a800000000003010800044
:1020b80064006000e00f5000fcff3a00dbff3700cf
:020000040000fa
:0200000401f009
:04000c00f8ff0000f9
:020000040000fa
:0200000401f009
:040010007dff000070
:020000040000fa
:0200000401f009
:040014007fff00006a
:020000040000fa
:0200000401f009
:04001c00deff000003
:00000001FF
