:020000040000fa
:080000000002040000000000f2
:020000040000fa
:1000080090020000900200009002000090020000a0
:100018009002000090020000900200009002000090
:100028009002000090020000900200008605000087
:100038009002000090020000900200009002000070
:100048009002000090020000900200009002000060
:100058009002000090020000900200009002000050
:100068009002000090020000900200009002000040
:100078009002000090020000900200009002000030
:100088009002000090020000900200009002000020
:100098009002000090020000900200009002000010
:1000a8009002000090020000900200009002000000
:1000b80090020000900200009002000090020000f0
:1000c80090020000900200009002000090020000e0
:1000d80090020000900200009002000090020000d0
:1000e80090020000900200009002000090020000c0
:1000f80090020000900200009002000090020000b0
:10010800900200009002000090020000900200009f
:10011800900200009002000090020000900200008f
:10012800900200009002000090020000900200007f
:10013800900200009002000090020000900200006f
:10014800900200009002000090020000900200005f
:10015800900200009002000090020000900200004f
:10016800900200009002000090020000900200003f
:10017800900200009002000090020000900200002f
:10018800900200009002000090020000900200001f
:10019800900200009002000090020000900200000f
:1001a80090020000900200009002000090020000ff
:1001b80090020000900200009002000090020000ef
:1001c80090020000900200009002000090020000df
:1001d80090020000900200009002000090020000cf
:1001e80090020000900200009002000090020000bf
:0801f8009002000090020000db
:020000040000fa
:10020800900200009002000090020000900200009e
:10021800900200009002000090020000900200008e
:100228009002000090020000900200008605000085
:10023800900200009002000090020000900200006e
:10024800900200009002000090020000900200005e
:10025800900200009002000090020000900200004e
:10026800900200009002000090020000900200003e
:10027800900200009002000090020000900200002e
:10028800900200009002000090020000900200001e
:10029800900200009002000090020000900200000e
:1002a80090020000900200009002000090020000fe
:1002b80090020000900200009002000090020000ee
:1002c80090020000900200009002000090020000de
:1002d80090020000900200009002000090020000ce
:1002e80090020000900200009002000090020000be
:1002f80090020000900200009002000090020000ae
:10030800900200009002000090020000900200009d
:10031800900200009002000090020000900200008d
:10032800900200009002000090020000900200007d
:10033800900200009002000090020000900200006d
:10034800900200009002000090020000900200005d
:10035800900200009002000090020000900200004d
:10036800900200009002000090020000900200003d
:10037800900200009002000090020000900200002d
:10038800900200009002000090020000900200001d
:10039800900200009002000090020000900200000d
:1003a80090020000900200009002000090020000fd
:1003b80090020000900200009002000090020000ed
:1003c80090020000900200009002000090020000dd
:1003d80090020000900200009002000090020000cd
:1003e80090020000900200009002000090020000bd
:0803f8009002000090020000d9
:020000040000fa
:100400000f8a20000ebf22000e01880000000000ad
:100410000c000700e09320000100200011000700fd
:10042000000020000000e000020032000000020096
:1004300000000000e6030200000000000040da00b7
:100440000000fe004440a900600020000000e00021
:100450000300320000002000a00188004440a800f2
:100460000000060091018800800078000000eb0089
:1004700015003700e280400032a0b4009101ba00bc
:10048000e280400032a0b4009102ba00e280400055
:1004900032a0b4000002eb00472bde00f507b200eb
:1004a000602ce10004003a000059eb008301e900f0
:1004b000fdff3e00040037006128e100010032002a
:1004c0000082eb00040007001101ba000200e00006
:1004d000e8ff3a00000006003159ba008301e90044
:1004e0000c0032002159ba008301e90008003200f3
:1004f0000400e00003003a00e280400032a0b400b3
:10050000f5ff370011d9ba008301e900faff3a007c
:100510008100e800e180400032a0b4000000060045
:100520000040da000000fe00000024000602ab00dc
:10053000feff3a000642ab00fcff3a000662ab0049
:10054000faff3a000622ab00f8ff3a000682ab0041
:10055000f6ff3a004110800080806000f3ff3a000f
:10056000000006000662a8000662ab00feff3a002b
:1005700008c2a90000108000000006000080fb00f7
:1005800010108800411080000108b20000c0eb008c
:100590000a003a00000024004110800080806000c2
:1005a000fdff3a00e0ff0700411080000000280036
:1005b0000080600001003200e0cfb30000000600c0
:1005c00006a2a8000682a800000006000622a800d5
:1005d000000006000602a800000006000642a8006f
:1005e00000000600911180000110b20010c0b3009d
:1005f000010032000040eb00000006008111800085
:10060000e6806000e68f500001003200f00fb2007b
:10061000a011880000000600839f68000100e00030
:1006200002003d0060001000e08018000300e000c0
:1006300002003d0060011100e08119000500070083
:100640004f00e00002003b0060001000e080180056
:10065000000006006022b800060220000000d00062
:100660008180d2000482d2008582d2000000a000e6
:100670000202520083825a0003003100020242004b
:1006800083824a000000a1000603e900f3ff3a005c
:100690000000060001027800010037000300780026
:1006a000809fbe00110009000282d800000278007d
:1006b0004f00be008001e800e00f5200f7ff3a0053
:1006c0008449780000027800110009008280d80077
:1006d0000002fd008101780084007800e9cf51001c
:1006e00001003400e7c1410005c3b30005d041005b
:1006f000e00f5200f3ff3a0000000600881f780068
:1007000000047800e08f500005003d00880178006b
:10071000d0c2b300805978008100ea0001003700a0
:100720008801780003007800daff070008007800ed
:100730004f047800000006008001780002003700b6
:10074000b1597800040178000202e900e00f51007d
:10075000fbff3a000000060080017800020037002d
:1007600081597800040178000202e900e00f51008d
:10077000fbff3a000000060000017800010037008e
:100780000201e8008041eb0092cf1100fcff3a002b
:10079000b141780003597800e0cf5100fcff3a00e6
:1007a00000000600800078000041eb00b14f11000e
:1007b000fdff3a000080ea000080400000000600d3
:020000040000fa
:0c07c0002c0000000d0a000000000000ea
:020000040000fa
:1007cc000000fa00200f2000303a8800213a800007
:1007dc00f0f32f0000806000203a8800213a80005e
:1007ec0000fe2f00008060007000b300203a8800eb
:1007fc000000eb00403a880040a7a900120020003e
:10080c0080072000a1092000337420008049780063
:10081c008149780082497800120020006004200091
:10082c0071052000237420008049780081497800ec
:10083c008249780000000000113a80000000270077
:10084c008080600000002100808f5000faff3a0089
:10085c0000000000113a80000002200000806000bf
:10086c00e00f5000fbff320005e1a9000421a900b4
:10087c0004c1a90021088000000320000080700042
:10088c00200888000000eb0000088800c009200048
:10089c001008880021058000f0ff2800808060008f
:1008ac000000210000807000200588008460a900f1
:1008bc009460a80005e1a80000582200c1010700bf
:1008cc00e00420002010880003000700c10007008e
:1008dc00d962a900ffff37000000fa0031e2a9003d
:1008ec0031a2a9003182a9003162a90081118000d6
:1008fc00f0cf2f00008060008011880030e2a8004b
:10090c0030c2a90030a2a9003082a9008111800058
:10091c0090ff2f0000806000801188003002a90039
:10092c003062a900004024009005880091118000dd
:10093c00f0f32f0000806000901188003222a90093
:10094c00a0012000c011880031e2a8003342a800a9
:10095c000080fa00000006001200fa00000f980058
:10096c006000b800008fbe000e0078004000b000a0
:10097c00050009000018eb005eb09700a2002000f3
:10098c00800078000e00780059ff07008000780086
:10099c000080200075ff0700008020007eff07000c
:1009ac0080007800008020000080400022002000a1
:1009bc00013e28005dff07006eb09700a2002000ea
:1009cc00800078000e00780049ff07008000780056
:1009dc000080200065ff0700008020006eff0700ec
:1009ec008000780000802000008040002200200061
:1009fc00013e28004dff07007eb09700a2002000aa
:100a0c00800078000e00780039ff07008000780025
:100a1c000080200055ff0700008020005eff0700cb
:100a2c008000780000802000008040002200200020
:100a3c00013e28003dff07000eb89700a2002000e1
:100a4c00800078000e00780029ff070080007800f5
:100a5c000080200045ff0700008020004eff0700ab
:100a6c0080007800008020000080400022002000e0
:100a7c00013e28002dff07001eb89700a2002000a1
:100a8c00800078000e00780019ff070080007800c5
:100a9c000080200035ff0700008020003eff07008b
:100aac0080007800008020000080400022002000a0
:100abc00013e28001dff07002eb89700a200200061
:100acc00800078000e00780009ff07008000780095
:100adc000080200025ff0700008020002eff07006b
:100aec008000780000802000008040003200200050
:100afc00213e28000dff07000080fa0000000600d0
:100b0c003600f800809fbe00829fbe00849fbe000e
:100b1c00869fbe00881f78000200fa000088200023
:100b2c007c000700f0874700708057000188200088
:100b3c0007000900311878000001b1000080200086
:100b4c0085ff0700f0875700dd62a8000040eb002e
:100b5c00004f78000c0037001e4078008080fb00ae
:100b6c000080200000804000104078000000fb0056
:100b7c009ffe07000000000097fe0700e04f5000aa
:100b8c00fdff3a001e4fe8009e4078000184fb00f8
:100b9c000080200000ff0700800f5400eeff39009a
:100bac00020820008000eb0000802000e7fe070018
:100bbc008460a9000080fa004f0478004f03be0047
:100bcc004f02be004f01be004f00be003600f900c0
:100bdc00004006000000fa0010c0b300e700070058
:100bec000040eb00210007000040eb003400070040
:100bfc000040eb00020007000080fa000000060035
:100c0c000200fa00004f7800b1c6b30080c6b300f2
:100c1c004a01070090e8b7001e407800e04f5000f2
:100c2c0006003200018920009140780000c4b30016
:100c3c0000c0700090e8b700050037000189200063
:100c4c0091407800f0cbb30000c0600090e8b70092
:100c5c0090c8bf0000417800b1c6b30080c6b30095
:100c6c00f90007000080fa00000006000200fa00fc
:100c7c00004f7800b1c1b30080c6b3002f0107004c
:100c8c0090e8b70090c8bf008040780000ceb30059
:100c9c0080c060001e4178000280fb004300dd0034
:100cac000040780000c0700000417800b1c1b30072
:100cbc0080c6b300e40007000080fa0000000600c4
:100ccc000200fa00004f7800c1c1b30080c6b30027
:100cdc001a01070090e8b70090c8bf008040780068
:100cec0000ceb30080c060001e4178000280fb0083
:100cfc004300dd000040780000c070000041780027
:100d0c00c1c1b30080c6b300cf0007000080fa0059
:100d1c00000006000200fa00000f7800b1c3b30017
:100d2c0080c6b3000501070090e8b700c1c3b3004b
:100d3c0080c6b3000101070091e8b700d1c3b3002e
:100d4c0080c6b300fd00070092e8b700e1c3b30012
:100d5c0080c6b300f900070093e8b700f1c3b300f5
:100d6c0080c6b300f500070094e8b70001c4b300d7
:100d7c0080c6b300f100070095e8b70031c4b3009a
:100d8c0080c6b300ed00070096e8b70041c4b3007d
:100d9c0080c6b300e900070097e8b70051c4b30060
:100dac0080c6b300e500070098e8b70061c4b30043
:100dbc0080c6b300e100070099e8b70071c4b30026
:100dcc0080c6b300dd0007009ae8b70081c4b30009
:100ddc0080c6b300d90007009be8b70090c8bf00dd
:100dec000080fb00c800dd0091c8bf000080fb0044
:100dfc00808070001e0078000108780092c8bf0047
:100e0c000080fb00c800dd0093c8bf000080fb0021
:100e1c00808070001e0078001100980094c8bf00fc
:100e2c000080fb00c800dd0095c8bf000080fb00ff
:100e3c00808070001e0078002100980096c8bf00ca
:100e4c000080fb00c800dd0097c8bf000080fb00dd
:100e5c00808070001e0078003100980098c8bf0098
:100e6c000080fb00c800dd0099c8bf000080fb00bb
:100e7c00808070001e007800410098009ac8bf0066
:100e8c000080fb00c800dd009bc8bf000080fb0099
:100e9c00808070001e007800510098009e00780041
:100eac0010c0b300e04898000080fa000000060073
:100ebc000200fa00000f780011c4b30080c6b30022
:100ecc009e00070090e8b70021c4b30080c6b300b1
:100edc009a00070091e8b70090c8bf000080fb00a3
:100eec00c800dd0091c8bf000080fb00808070004e
:100efc001e007800610098000080fa0000000600d7
:100f0c000200fa00004f7800b1c6b30080c6b300ef
:100f1c008a00070090e8b7001e407800e04f5000b0
:100f2c0004003a0090c8bf000034a00090e8b7005d
:100f3c0005003700018920009140780070cfb30084
:100f4c0000c0600090e8b70090c8bf000041780076
:100f5c00b1c6b30080c6b3003b0007000080fa00a6
:100f6c00000006000000fa0051c7b30080c6b300b1
:100f7c00720007000080fa00000006000200fa0070
:100f8c00004f7800b1c6b30080c6b3006b000700f9
:100f9c0090e8b70090c8bf008040780080cfb300c5
:100fac0080c060001e40780000c0700000417800d6
:100fbc00b1c6b30080c6b300230007000080fa005e
:100fcc00000006000400fa00100798000000eb0077
:100fdc00000f78009ec8bf00e14f50001700320090
:100fec0007e2a9001e009000000040000100200054
:100ffc000001be0000082f00a12f200083fd070078
:10100c00000078000080e90020108800201080008b
:10101c000080e80000004000010020000001be003c
:10102c0000082f00a12f200078fd0700000f78008a
:10103c0007e2a80010c0b3009ee8b7001e007800bd
:10104c000080fa00000006000400fa00004f78004f
:10105c0011479800224798005bfd07000000000034
:10106c003010800061006000e00f5000fcff3a007f
:10107c008620a9001e407800004040003cfd07007f
:10108c00000000004010800061006000e00f500084
:10109c00fcff3a0000000000300480006200600099
:1010ac00e00f5000fcff32008620a9001e4090008b
:1010bc002ffd070000000000401080006100600060
:1010cc00e00f5000fcff3a000000000030048000ec
:1010dc0062006000e00f5000fcff32008620a90087
:1010ec002e40900022fd0700000000004010800000
:1010fc0061006000e00f5000fcff3a0000000000af
:10110c003004800062006000e00f5000fcff3200f1
:10111c008620a9002efd0700000000003010800082
:10112c0064006000e00f5000fcff3a00fbfc07007d
:10113c0010c0b3000080fa00000006000400fa00a2
:10114c0020479800314798000040eb00004f780092
:10115c001dfd0700000000003010800061006000e1
:10116c00e00f5000fcff3a002e4090000040400081
:10117c00fffc0700000000004010800061006000d0
:10118c00e00f5000fcff3a0000000000300480002b
:10119c0062006000e00f5000fcff32008620a900c6
:1011ac003e409000f2fc0700000000004010800060
:1011bc0061006000e00f5000fcff3a0000000000ee
:1011cc003004800062006000e00f5000fcff320031
:1011dc008620a900fafc07000000000030108000f7
:1011ec0062006000e00f5000fcff3a002e409000bf
:1011fc00004040000040e800ddfc0700000000005b
:10120c004010800061006000e00f5000fcff3a00cd
:10121c00000000003004800062006000e00f50000d
:10122c00fcff32008620a900cbfc0700004f7800a1
:10123c00e0fc07000000000030108000700060002f
:10124c00e00f5000fcff3a00e1fc0700000000003a
:10125c003010800064006000e00f5000fcff3a008a
:10126c00aefc07001e4078000080fa00000006006b
:020000040000fa
:10127c0080080000100000000000000000080000c2
:10128c0080000000020000000000000000000000d0
:10129c000000000000000000000000000000000042
:1012ac000000000000000000000000000000000032
:1012bc000000000000000000000000000000000022
:1012cc000000000000000000000000000000000012
:1012dc000000000000000000000000000000000002
:1012ec0000000000000000000000000000000000f2
:1012fc0000000000000000000000000000000000e2
:10130c0000000000000000000000000000000000d1
:10131c0000000000000000000000000000000000c1
:10132c0000000000000000000000000000000000b1
:10133c00000000009e0800000200000000000000f9
:10134c00900800000e0000000000000000000000eb
:020000040000fa
:0200000401f009
:04000c00f8ff0000f9
:020000040000fa
:0200000401f009
:040010007dff000070
:020000040000fa
:0200000401f009
:040014007fff00006a
:020000040000fa
:0200000401f009
:04001c00dfff000002
:00000001FF
