:020000040000fa
:080000000002040000000000f2
:020000040000fa
:1000080090020000900200009002000090020000a0
:100018009002000090020000900200009002000090
:100028009002000090020000900200000c06000000
:100038009002000090020000900200009002000070
:100048009002000090020000900200009002000060
:100058009002000090020000900200009002000050
:100068009002000090020000900200009002000040
:100078009002000090020000900200009002000030
:100088009002000090020000900200009002000020
:100098009002000090020000900200009002000010
:1000a8009002000090020000900200009002000000
:1000b80090020000900200009002000090020000f0
:1000c80090020000900200009002000090020000e0
:1000d80090020000900200009002000090020000d0
:1000e80090020000900200009002000090020000c0
:1000f80090020000900200009002000090020000b0
:10010800900200009002000090020000900200009f
:10011800900200009002000090020000900200008f
:10012800900200009002000090020000900200007f
:10013800900200009002000090020000900200006f
:10014800900200009002000090020000900200005f
:10015800900200009002000090020000900200004f
:10016800900200009002000090020000900200003f
:10017800900200009002000090020000900200002f
:10018800900200009002000090020000900200001f
:10019800900200009002000090020000900200000f
:1001a80090020000900200009002000090020000ff
:1001b80090020000900200009002000090020000ef
:1001c80090020000900200009002000090020000df
:1001d80090020000900200009002000090020000cf
:1001e80090020000900200009002000090020000bf
:0801f8009002000090020000db
:020000040000fa
:10020800900200009002000090020000900200009e
:10021800900200009002000090020000900200008e
:100228009002000090020000900200000c060000fe
:10023800900200009002000090020000900200006e
:10024800900200009002000090020000900200005e
:10025800900200009002000090020000900200004e
:10026800900200009002000090020000900200003e
:10027800900200009002000090020000900200002e
:10028800900200009002000090020000900200001e
:10029800900200009002000090020000900200000e
:1002a80090020000900200009002000090020000fe
:1002b80090020000900200009002000090020000ee
:1002c80090020000900200009002000090020000de
:1002d80090020000900200009002000090020000ce
:1002e80090020000900200009002000090020000be
:1002f80090020000900200009002000090020000ae
:10030800900200009002000090020000900200009d
:10031800900200009002000090020000900200008d
:10032800900200009002000090020000900200007d
:10033800900200009002000090020000900200006d
:10034800900200009002000090020000900200005d
:10035800900200009002000090020000900200004d
:10036800900200009002000090020000900200003d
:10037800900200009002000090020000900200002d
:10038800900200009002000090020000900200001d
:10039800900200009002000090020000900200000d
:1003a80090020000900200009002000090020000fd
:1003b80090020000900200009002000090020000ed
:1003c80090020000900200009002000090020000dd
:1003d80090020000900200009002000090020000cd
:1003e80090020000900200009002000090020000bd
:0803f8009002000090020000d9
:020000040000fa
:100400000f8220000ebf22000e01880000000000b5
:100410000c0007006086200001002000110007008a
:10042000000020000000e000020032000000020096
:100430000000000042050200000000000040da0059
:100440000000fe004440a900000020000000e00081
:100450000300320000002000a00188004440a800f2
:100460000000060091018800800078000000eb0089
:1004700015003700e280400032a0b4009101ba00bc
:10048000e280400032a0b4009102ba00e280400055
:1004900032a0b4000002eb00472bde00f507b200eb
:1004a000602ce10004003a000059eb008301e900f0
:1004b000fdff3e00040037006128e100010032002a
:1004c0000082eb00040007001101ba000200e00006
:1004d000e8ff3a00000006003159ba008301e90044
:1004e0000c0032002159ba008301e90008003200f3
:1004f0000400e00003003a00e280400032a0b400b3
:10050000f5ff370011d9ba008301e900faff3a007c
:100510008100e800e180400032a0b4000000060045
:100520000040da000000fe00000024000602ab00dc
:10053000feff3a000642ab00fcff3a000662ab0049
:10054000faff3a000622ab00f8ff3a000682ab0041
:10055000f6ff3a004110800080806000f3ff3a000f
:10056000000006000662a8000662ab00feff3a002b
:1005700008c2a90000108000000006000080fb00f7
:1005800010108800411080000108b20000c0eb008c
:100590000a003a00000024004110800080806000c2
:1005a000fdff3a00e0ff0700411080000000280036
:1005b0000080600001003200e0cfb30000000600c0
:1005c00006a2a8000682a800000006000622a800d5
:1005d000000006000602a800000006000642a8006f
:1005e00000000600911180000110b20010c0b3009d
:1005f000010032000040eb00000006008111800085
:10060000e6806000e68f500001003200f00fb2007b
:10061000a011880000000600839f68000100e00030
:1006200002003d0060001000e08018000300e000c0
:1006300002003d0060011100e08119000500070083
:100640004f00e00002003b0060001000e080180056
:10065000000006006022b800060220000000d00062
:100660008180d2000482d2008582d2000000a000e6
:100670000202520083825a0003003100020242004b
:1006800083824a000000a1000603e900f3ff3a005c
:040690000000060060
:020000040000fa
:100694000000fa0010c0b300e70007000040eb00c0
:1006a400210007000040eb00340007000040eb008d
:1006b400020007000080fa00000006000200fa00b1
:1006c400004f7800b1c6b30080c6b3003102070002
:1006d40010e8b7001e407800e04f500006003200da
:1006e400018120009140780000c4b30000c0700074
:1006f40010e8b70005003700018120009140780020
:10070400f0cbb30000c0600010e8b70010c8bf0011
:1007140000417800b1c6b30080c6b300e001070011
:100724000080fa00000006000200fa00004f780082
:10073400b1c1b30080c6b3001602070010e8b700c9
:1007440010c8bf008040780000ceb30080c06000b5
:100754001e4178000280fb004300dd000040780069
:1007640000c0700000417800b1c1b30080c6b3007e
:10077400cb0107000080fa00000006000200fa0026
:10078400004f7800c1c1b30080c6b3000102070066
:1007940010e8b70010c8bf008040780000ceb30056
:1007a40080c060001e4178000280fb004300dd0031
:1007b4000040780000c0700000417800c1c1b3005f
:1007c40080c6b300b60107000080fa0000000600ee
:1007d4000200fa00000f7800b1c3b30080c6b30072
:1007e400ec01070010e8b700c1c3b30080c6b30032
:1007f400e801070011e8b700d1c3b30080c6b30015
:10080400e401070012e8b700e1c3b30080c6b300f7
:10081400e001070013e8b700f1c3b30080c6b300da
:10082400dc01070014e8b70001c4b30080c6b300bc
:10083400d801070015e8b70031c4b30080c6b3007f
:10084400d401070016e8b70041c4b30080c6b30062
:10085400d001070017e8b70051c4b30080c6b30045
:10086400cc01070018e8b70061c4b30080c6b30028
:10087400c801070019e8b70071c4b30080c6b3000b
:10088400c40107001ae8b70081c4b30080c6b300ee
:10089400c00107001be8b70010c8bf000080fb00c0
:1008a400c800dd0011c8bf000080fb00808070001c
:1008b4001e0078000108780012c8bf000080fb0009
:1008c400c800dd0013c8bf000080fb0080807000fa
:1008d4001e0078001100980014c8bf000080fb00bf
:1008e400c800dd0015c8bf000080fb0080807000d8
:1008f4001e0078002100980016c8bf000080fb008d
:10090400c800dd0017c8bf000080fb0080807000b5
:100914001e0078003100980018c8bf000080fb005a
:10092400c800dd0019c8bf000080fb008080700093
:100934001e007800410098001ac8bf000080fb0028
:10094400c800dd001bc8bf000080fb008080700071
:100954001e007800510098009e00780010c0b3007b
:10096400e04898000080fa00000006000200fa0047
:10097400000f780011c4b30080c6b30085010700de
:1009840010e8b70021c4b30080c6b300810107009a
:1009940011e8b70010c8bf000080fb00c800dd00ec
:1009a40011c8bf000080fb00808070001e0078002a
:1009b400610098000080fa00000006000200fa00be
:1009c400004f7800b1c6b30080c6b30071010700c0
:1009d40010e8b7001e407800e04f500004003a00d1
:1009e40010c8bf000034a00010e8b70005003700ad
:1009f400018120009140780070cfb30000c06000f6
:100a040010e8b70010c8bf0000417800b1c6b300b9
:100a140080c6b300220107000080fa00000006002f
:100a24000000fa0051c7b30080c6b30059010700a3
:100a34000080fa00000006000200fa00004f78006f
:100a4400b1c6b30080c6b3005201070010e8b70076
:100a540010c8bf008040780080cfb30080c0600021
:100a64001e40780000c0700000417800b1c6b30099
:100a740080c6b3000a0107000080fa0000000600e7
:100a84000000fa00200f2000303a8800213a80004c
:100a9400f0f32f0000806000203a8800213a8000a3
:100aa40000fe2f00008060007000b300203a880030
:100ab4000000eb00403a880040a7a9001200200083
:100ac40080072000a10920003374200080497800a9
:100ad40081497800824978001200200060042000d7
:100ae4007105200023742000804978008149780032
:100af4008249780000000000113a800000002700bd
:100b04008080600000002100808f5000faff3a00ce
:100b140000000000113a8000000220000080600004
:100b2400e00f5000fbff320005e1a9000421a900f9
:100b340004c1a90021088000000320000080700087
:100b4400200888000000eb0000088800c00920008d
:100b54001008880021058000f0ff280080806000d4
:100b64000000210000807000200588008460a90036
:100b74009460a80005e1a80000582200a70007001f
:100b8400e00420002010880002000700c0fe0700d7
:100b9400ffff37000000fa0031e2a90031a2a900ea
:100ba4003182a9003162a90081118000f0cf2f00a9
:100bb400008060008011880030e2a80030c2a900e3
:100bc40030a2a9003082a9008111800090ff2f007b
:100bd40000806000801188003002a9003062a90002
:100be400004024009005880091118000f0f32f004c
:100bf40000806000901188003222a900a00120002a
:100c0400c011880031e2a8003342a8000080fa0035
:100c1400000006003600f800809fbe00829fbe00e0
:100c2400849fbe00869fbe000000fa000080200062
:100c3400e7fe0700504080004880de006efe07009b
:100c44000000000066fe0700e04f5000fdff3a0080
:100c54005040800068fe07000000000060fe0700ae
:100c6400e04f5000fdff3a00c002200062fe070082
:100c7400000000005afe0700e04f5000fdff3a005c
:100c8400404080004880de005bfe0700000000005a
:100c940053fe0700e04f5000fdff3a004040800043
:100ca40055fe0700000000004dfe0700e04f500015
:100cb400fdff3a00c00220004ffe070000000000c4
:100cc40047fe0700e04f5000fdff3a00304080002f
:100cd4004880de0048fe07000000000040fe0700d8
:100ce400e04f5000fdff3a003040800042fe070014
:100cf400000000003afe0700e04f5000fdff3a00fc
:100d0400c00220003cfe07000000000034fe070083
:100d1400e04f5000fdff3a00204080004880de0094
:100d240035fe0700000000002dfe0700e04f5000d4
:100d3400fdff3a00204080002ffe07000000000065
:100d440027fe0700e04f5000fdff3a00c0022000dc
:100d540029fe07000000000021fe0700e04f5000bc
:100d6400fdff3a00104080004880de0022fe0700ac
:100d7400000000001afe0700e04f5000fdff3a009b
:100d8400104080001cfe07000000000014fe070055
:100d9400e04f5000fdff3a00c002200016fe07009d
:100da400000000000efe0700e04f5000fdff3a0077
:100db400004080004880de000ffe070000000000b5
:100dc40007fe0700e04f5000fdff3a00004080009e
:100dd40009fe07000000000001fe0700e04f50007c
:100de400fdff3a00b003200003fe070000000000ee
:100df400fbfd0700e04f5000fdff3a008460a900ae
:100e04000080fa004f03be004f02be004f01be0037
:100e14004f00be003600f900004006000400fa004e
:100e2400100798000000eb00000f78001ec8bf00f8
:100e3400e14f50001700320007e2a9001e009000a5
:100e440000004000010020000001be0000082f0047
:100e5400a12f2000effd0700000078000080e900ca
:100e640020108800201080000080e800000040006e
:100e7400010020000001be0000082f00a12f200067
:100e8400e4fd0700000f780007e2a80010c0b300db
:100e94001ee8b7001e0078000080fa00000006007b
:100ea4000400fa00004f7800114798002247980088
:100eb400c7fd0700000000003010800061006000e2
:100ec400e00f5000fcff3a008620a9001e40780085
:100ed40000404000a8fd0700000000004010800012
:100ee40061006000e00f5000fcff3a0000000000c9
:100ef4003004800062006000e00f5000fcff32000c
:100f04008620a9001e4090009bfd07000000000001
:100f14004010800061006000e00f5000fcff3a00c8
:100f2400000000003004800062006000e00f500008
:100f3400fcff32008620a9002e4090008efd0700a1
:100f4400000000004010800061006000e00f5000cd
:100f5400fcff3a00000000003004800062006000e2
:100f6400e00f5000fcff32008620a9009afd070024
:100f7400000000003010800064006000e00f5000aa
:100f8400fcff3a0067fd070010c0b3000080fa00c0
:100f9400000006000400fa0020479800314798003a
:100fa4000040eb00004f780089fd070000000000be
:100fb4003010800061006000e00f5000fcff3a0038
:100fc4002e409000004040006bfd07000000000030
:100fd4004010800061006000e00f5000fcff3a0008
:100fe400000000003004800062006000e00f500048
:100ff400fcff32008620a9003e4090005efd070001
:10100400000000004010800061006000e00f50000c
:10101400fcff3a0000000000300480006200600021
:10102400e00f5000fcff32008620a90066fd070097
:10103400000000003010800062006000e00f5000eb
:10104400fcff3a002e409000004040000040e800c1
:1010540049fd0700000000004010800061006000ae
:10106400e00f5000fcff3a00000000003004800054
:1010740062006000e00f5000fcff32008620a900ef
:1010840037fd0700004f78004cfd0700000000000a
:101094003010800070006000e00f5000fcff3a0048
:1010a4004dfd070000000000301080006400600067
:1010b400e00f5000fcff3a001afd07001e407800c4
:0810c4000080fa0000000600a4
:020000040000fa
:1010cc000008000010000000000000001e080000d6
:1010dc000200000000000000100800000e000000dc
:0810ec000000000000000000fc
:020000040000fa
:0200000401f009
:04000c00f8ff0000f9
:020000040000fa
:0200000401f009
:040010007dff000070
:020000040000fa
:0200000401f009
:040014007fff00006a
:020000040000fa
:0200000401f009
:04001c00dfff000002
:00000001FF
